Object {blockHash: null, blockNumber: null, condition: null, creates: null, from: "0x749a64e73e5674382f46355a9f170ff7460022d2"…}
blockHash:    null
blockNumber:    null
condition:    null
creates:    null
from:    "0x749a64e73e5674382f46355a9f170ff7460022d2"
gas:    250000
gasPrice:    e
c:    Array(1)
0:    4000000000
length:    1
__proto__:    Array(0)
e:    9
s:    1
__proto__:    Object
hash:    "0xea557f07547b53681daadadce7fd3dd468daaa612966cd7712534571cdf84a86"
input:    "0x0a19b14a00000000000000000000000000000000000000000000000000000000000000000000000000000000000000000000000000000000000000003cb71f51fc558000000000000000000000000000d4fa1460f537bb9085d22c7bccb5dd450ef28e3a00000000000000000000000000000000000000000000000000000005d21dba0000000000000000000000000000000000000000000000000000000000003d410a0000000000000000000000000000000000000000000000000000000047863832000000000000000000000000585e184dc84968f83e5702659e7e4546545979c0000000000000000000000000000000000000000000000000000000000000001b43afef4f88b58e2dd6964f87cc4bbacf28bf7eefc6397430424f48b1e1c21f3a7207515c5d88563c82d2dabde3b0f0939d924ab48cf3b1e30d0b3de85f7c349600000000000000000000000000000000000000000000000034b1c1f2cf1767e5"
networkId:    null
nonce:    21
publicKey:    "0x1081a0a6ced0b9ac05aced92574dd9ecfd6c73a0eb5efcf3a039730dc46ab48b73a66f11776a65c79cc8f1a9de77a052961ce0012ea8de5e3cba92bf07195d87"
r:    "0x433824b641682cb0458e531937cc72ebc1c942d7527601ecec15c50754c55461"
raw:    "0xf901ca1584ee6b28008303d090948d12a197cb00d4747a1fe03395095ce2a5cc681980b901640a19b14a00000000000000000000000000000000000000000000000000000000000000000000000000000000000000000000000000000000000000003cb71f51fc558000000000000000000000000000d4fa1460f537bb9085d22c7bccb5dd450ef28e3a00000000000000000000000000000000000000000000000000000005d21dba0000000000000000000000000000000000000000000000000000000000003d410a0000000000000000000000000000000000000000000000000000000047863832000000000000000000000000585e184dc84968f83e5702659e7e4546545979c0000000000000000000000000000000000000000000000000000000000000001b43afef4f88b58e2dd6964f87cc4bbacf28bf7eefc6397430424f48b1e1c21f3a7207515c5d88563c82d2dabde3b0f0939d924ab48cf3b1e30d0b3de85f7c349600000000000000000000000000000000000000000000000034b1c1f2cf1767e51ca0433824b641682cb0458e531937cc72ebc1c942d7527601ecec15c50754c55461a0395128af86dd6a40dd2af9fd0b68a46bc56c7e4432385786ffed4fdcc16dd226"
s:    "0x395128af86dd6a40dd2af9fd0b68a46bc56c7e4432385786ffed4fdcc16dd226"
standardV:    "0x1"
to:    "0x8d12a197cb00d4747a1fe03395095ce2a5cc6819"
transactionIndex:    null
v:    "0x1c"
value:    e
c:    Array(1)
0:    0
length:    1
__proto__:    Array(0)
e:    0
s:    1
__proto__:    Object